{
  "_format": "hh-sol-artifact-1",
  "contractName": "Marketplace",
  "sourceName": "src/backend/contracts/Marketplace.sol",
  "abi": [
    {
      "inputs": [
        {
          "internalType": "uint256",
          "name": "_feePercent",
          "type": "uint256"
        }
      ],
      "stateMutability": "nonpayable",
      "type": "constructor"
    },
    {
      "anonymous": false,
      "inputs": [
        {
          "indexed": false,
          "internalType": "uint256",
          "name": "itemId",
          "type": "uint256"
        },
        {
          "indexed": true,
          "internalType": "address",
          "name": "nft",
          "type": "address"
        },
        {
          "indexed": false,
          "internalType": "uint256",
          "name": "tokenId",
          "type": "uint256"
        },
        {
          "indexed": false,
          "internalType": "uint256",
          "name": "price",
          "type": "uint256"
        },
        {
          "indexed": true,
          "internalType": "address",
          "name": "seller",
          "type": "address"
        },
        {
          "indexed": true,
          "internalType": "address",
          "name": "buyer",
          "type": "address"
        }
      ],
      "name": "Bought",
      "type": "event"
    },
    {
      "anonymous": false,
      "inputs": [
        {
          "indexed": false,
          "internalType": "uint256",
          "name": "itemId",
          "type": "uint256"
        },
        {
          "indexed": true,
          "internalType": "address",
          "name": "nft",
          "type": "address"
        },
        {
          "indexed": false,
          "internalType": "uint256",
          "name": "tokenId",
          "type": "uint256"
        },
        {
          "indexed": false,
          "internalType": "uint256",
          "name": "price",
          "type": "uint256"
        },
        {
          "indexed": true,
          "internalType": "address",
          "name": "seller",
          "type": "address"
        }
      ],
      "name": "Offered",
      "type": "event"
    },
    {
      "inputs": [],
      "name": "feeAccount",
      "outputs": [
        {
          "internalType": "address payable",
          "name": "",
          "type": "address"
        }
      ],
      "stateMutability": "view",
      "type": "function"
    },
    {
      "inputs": [],
      "name": "feePercent",
      "outputs": [
        {
          "internalType": "uint256",
          "name": "",
          "type": "uint256"
        }
      ],
      "stateMutability": "view",
      "type": "function"
    },
    {
      "inputs": [
        {
          "internalType": "uint256",
          "name": "_itemId",
          "type": "uint256"
        }
      ],
      "name": "getTotalPrice",
      "outputs": [
        {
          "internalType": "uint256",
          "name": "",
          "type": "uint256"
        }
      ],
      "stateMutability": "view",
      "type": "function"
    },
    {
      "inputs": [],
      "name": "itemCount",
      "outputs": [
        {
          "internalType": "uint256",
          "name": "",
          "type": "uint256"
        }
      ],
      "stateMutability": "view",
      "type": "function"
    },
    {
      "inputs": [
        {
          "internalType": "uint256",
          "name": "",
          "type": "uint256"
        }
      ],
      "name": "items",
      "outputs": [
        {
          "internalType": "uint256",
          "name": "itemId",
          "type": "uint256"
        },
        {
          "internalType": "contract IERC721",
          "name": "nft",
          "type": "address"
        },
        {
          "internalType": "uint256",
          "name": "tokenId",
          "type": "uint256"
        },
        {
          "internalType": "uint256",
          "name": "price",
          "type": "uint256"
        },
        {
          "internalType": "address payable",
          "name": "seller",
          "type": "address"
        },
        {
          "internalType": "bool",
          "name": "sold",
          "type": "bool"
        }
      ],
      "stateMutability": "view",
      "type": "function"
    },
    {
      "inputs": [
        {
          "internalType": "contract IERC721",
          "name": "_nft",
          "type": "address"
        },
        {
          "internalType": "uint256",
          "name": "_tokenId",
          "type": "uint256"
        },
        {
          "internalType": "uint256",
          "name": "_price",
          "type": "uint256"
        }
      ],
      "name": "makeItem",
      "outputs": [],
      "stateMutability": "nonpayable",
      "type": "function"
    },
    {
      "inputs": [
        {
          "internalType": "uint256",
          "name": "_itemId",
          "type": "uint256"
        }
      ],
      "name": "purchaseItem",
      "outputs": [],
      "stateMutability": "payable",
      "type": "function"
    },
    {
      "inputs": [
        {
          "internalType": "uint256",
          "name": "_itemId",
          "type": "uint256"
        },
        {
          "internalType": "uint256",
          "name": "_newPrice",
          "type": "uint256"
        }
      ],
      "name": "relistItem",
      "outputs": [],
      "stateMutability": "nonpayable",
      "type": "function"
    }
  ],
  "bytecode": "0x60c06040523480156200001157600080fd5b506040516200162b3803806200162b83398181016040528101906200003791906200009c565b60016000819055503373ffffffffffffffffffffffffffffffffffffffff1660808173ffffffffffffffffffffffffffffffffffffffff1660601b815250508060a0818152505050620000ec565b6000815190506200009681620000d2565b92915050565b600060208284031215620000af57600080fd5b6000620000bf8482850162000085565b91505092915050565b6000819050919050565b620000dd81620000c8565b8114620000e957600080fd5b50565b60805160601c60a051611508620001236000396000818161055101526106020152600081816101f0015261082801526115086000f3fe60806040526004361061007b5760003560e01c8063bfb231d21161004e578063bfb231d21461012a578063ca7dd3751461016c578063d38ea5bf146101a9578063fa00afc7146101c55761007b565b806365e17c9d146100805780636bfb0d01146100ab57806375ad1b12146100d65780637fd6f15c146100ff575b600080fd5b34801561008c57600080fd5b506100956101ee565b6040516100a29190610f1d565b60405180910390f35b3480156100b757600080fd5b506100c0610212565b6040516100cd919061104f565b60405180910390f35b3480156100e257600080fd5b506100fd60048036038101906100f89190610da1565b610218565b005b34801561010b57600080fd5b5061011461054f565b604051610121919061104f565b60405180910390f35b34801561013657600080fd5b50610151600480360381019061014c9190610d78565b610573565b6040516101639695949392919061106a565b60405180910390f35b34801561017857600080fd5b50610193600480360381019061018e9190610d78565b6105fc565b6040516101a0919061104f565b60405180910390f35b6101c360048036038101906101be9190610d78565b61065f565b005b3480156101d157600080fd5b506101ec60048036038101906101e79190610d29565b610a2d565b005b7f000000000000000000000000000000000000000000000000000000000000000081565b60015481565b6002600054141561025e576040517f08c379a00000000000000000000000000000000000000000000000000000000081526004016102559061102f565b60405180910390fd5b600260008190555060008211801561027857506001548211155b6102b7576040517f08c379a00000000000000000000000000000000000000000000000000000000081526004016102ae90610fef565b60405180910390fd5b60006002600084815260200190815260200160002090508060040160149054906101000a900460ff1661031f576040517f08c379a000000000000000000000000000000000000000000000000000000000815260040161031690610faf565b60405180910390fd5b8060040160009054906101000a900473ffffffffffffffffffffffffffffffffffffffff1673ffffffffffffffffffffffffffffffffffffffff163373ffffffffffffffffffffffffffffffffffffffff16146103b1576040517f08c379a00000000000000000000000000000000000000000000000000000000081526004016103a89061100f565b60405180910390fd5b600082116103f4576040517f08c379a00000000000000000000000000000000000000000000000000000000081526004016103eb90610f8f565b60405180910390fd5b8060010160009054906101000a900473ffffffffffffffffffffffffffffffffffffffff1673ffffffffffffffffffffffffffffffffffffffff166323b872dd333084600201546040518463ffffffff1660e01b815260040161045993929190610f38565b600060405180830381600087803b15801561047357600080fd5b505af1158015610487573d6000803e3d6000fd5b5050505081816003018190555060008160040160146101000a81548160ff0219169083151502179055503373ffffffffffffffffffffffffffffffffffffffff168160010160009054906101000a900473ffffffffffffffffffffffffffffffffffffffff1673ffffffffffffffffffffffffffffffffffffffff167f655a0cf9c8db81512be9a76dc1c5ae5380b8816ce6ad659cd61b715e2999d59a8584600201548660405161053a939291906110cb565b60405180910390a35060016000819055505050565b7f000000000000000000000000000000000000000000000000000000000000000081565b60026020528060005260406000206000915090508060000154908060010160009054906101000a900473ffffffffffffffffffffffffffffffffffffffff16908060020154908060030154908060040160009054906101000a900473ffffffffffffffffffffffffffffffffffffffff16908060040160149054906101000a900460ff16905086565b600060647f0000000000000000000000000000000000000000000000000000000000000000606461062d9190611113565b600260008581526020019081526020016000206003015461064e919061119a565b6106589190611169565b9050919050565b600260005414156106a5576040517f08c379a000000000000000000000000000000000000000000000000000000000815260040161069c9061102f565b60405180910390fd5b600260008190555060006106b8826105fc565b905060006002600084815260200190815260200160002090506000831180156106e357506001548311155b610722576040517f08c379a000000000000000000000000000000000000000000000000000000000815260040161071990610fef565b60405180910390fd5b81341015610765576040517f08c379a000000000000000000000000000000000000000000000000000000000815260040161075c90610fcf565b60405180910390fd5b8060040160149054906101000a900460ff16156107b7576040517f08c379a00000000000000000000000000000000000000000000000000000000081526004016107ae90610f6f565b60405180910390fd5b8060040160009054906101000a900473ffffffffffffffffffffffffffffffffffffffff1673ffffffffffffffffffffffffffffffffffffffff166108fc82600301549081150290604051600060405180830381858888f19350505050158015610825573d6000803e3d6000fd5b507f000000000000000000000000000000000000000000000000000000000000000073ffffffffffffffffffffffffffffffffffffffff166108fc82600301548461087091906111f4565b9081150290604051600060405180830381858888f1935050505015801561089b573d6000803e3d6000fd5b5060018160040160146101000a81548160ff0219169083151502179055508060010160009054906101000a900473ffffffffffffffffffffffffffffffffffffffff1673ffffffffffffffffffffffffffffffffffffffff166323b872dd303384600201546040518463ffffffff1660e01b815260040161091e93929190610f38565b600060405180830381600087803b15801561093857600080fd5b505af115801561094c573d6000803e3d6000fd5b505050503373ffffffffffffffffffffffffffffffffffffffff168160040160009054906101000a900473ffffffffffffffffffffffffffffffffffffffff1673ffffffffffffffffffffffffffffffffffffffff168260010160009054906101000a900473ffffffffffffffffffffffffffffffffffffffff1673ffffffffffffffffffffffffffffffffffffffff167f8b4c9c8a607d67b321582dd8461041b1dc2ceeca70c8b7f37f8e02095cf2e76d8685600201548660030154604051610a18939291906110cb565b60405180910390a45050600160008190555050565b60026000541415610a73576040517f08c379a0000000000000000000000000000000000000000000000000000000008152600401610a6a9061102f565b60405180910390fd5b600260008190555060008111610abe576040517f08c379a0000000000000000000000000000000000000000000000000000000008152600401610ab590610f8f565b60405180910390fd5b60016000815480929190610ad1906112b8565b91905055508273ffffffffffffffffffffffffffffffffffffffff166323b872dd3330856040518463ffffffff1660e01b8152600401610b1393929190610f38565b600060405180830381600087803b158015610b2d57600080fd5b505af1158015610b41573d6000803e3d6000fd5b505050506040518060c0016040528060015481526020018473ffffffffffffffffffffffffffffffffffffffff1681526020018381526020018281526020013373ffffffffffffffffffffffffffffffffffffffff168152602001600015158152506002600060015481526020019081526020016000206000820151816000015560208201518160010160006101000a81548173ffffffffffffffffffffffffffffffffffffffff021916908373ffffffffffffffffffffffffffffffffffffffff160217905550604082015181600201556060820151816003015560808201518160040160006101000a81548173ffffffffffffffffffffffffffffffffffffffff021916908373ffffffffffffffffffffffffffffffffffffffff16021790555060a08201518160040160146101000a81548160ff0219169083151502179055509050503373ffffffffffffffffffffffffffffffffffffffff168373ffffffffffffffffffffffffffffffffffffffff167f655a0cf9c8db81512be9a76dc1c5ae5380b8816ce6ad659cd61b715e2999d59a6001548585604051610cea939291906110cb565b60405180910390a36001600081905550505050565b600081359050610d0e816114a4565b92915050565b600081359050610d23816114bb565b92915050565b600080600060608486031215610d3e57600080fd5b6000610d4c86828701610cff565b9350506020610d5d86828701610d14565b9250506040610d6e86828701610d14565b9150509250925092565b600060208284031215610d8a57600080fd5b6000610d9884828501610d14565b91505092915050565b60008060408385031215610db457600080fd5b6000610dc285828601610d14565b9250506020610dd385828601610d14565b9150509250929050565b610de68161123a565b82525050565b610df581611228565b82525050565b610e048161124c565b82525050565b610e1381611294565b82525050565b6000610e26601183611102565b9150610e318261135f565b602082019050919050565b6000610e49601f83611102565b9150610e5482611388565b602082019050919050565b6000610e6c601083611102565b9150610e77826113b1565b602082019050919050565b6000610e8f603383611102565b9150610e9a826113da565b604082019050919050565b6000610eb2601283611102565b9150610ebd82611429565b602082019050919050565b6000610ed5601a83611102565b9150610ee082611452565b602082019050919050565b6000610ef8601f83611102565b9150610f038261147b565b602082019050919050565b610f178161128a565b82525050565b6000602082019050610f326000830184610ddd565b92915050565b6000606082019050610f4d6000830186610dec565b610f5a6020830185610dec565b610f676040830184610f0e565b949350505050565b60006020820190508181036000830152610f8881610e19565b9050919050565b60006020820190508181036000830152610fa881610e3c565b9050919050565b60006020820190508181036000830152610fc881610e5f565b9050919050565b60006020820190508181036000830152610fe881610e82565b9050919050565b6000602082019050818103600083015261100881610ea5565b9050919050565b6000602082019050818103600083015261102881610ec8565b9050919050565b6000602082019050818103600083015261104881610eeb565b9050919050565b60006020820190506110646000830184610f0e565b92915050565b600060c08201905061107f6000830189610f0e565b61108c6020830188610e0a565b6110996040830187610f0e565b6110a66060830186610f0e565b6110b36080830185610ddd565b6110c060a0830184610dfb565b979650505050505050565b60006060820190506110e06000830186610f0e565b6110ed6020830185610f0e565b6110fa6040830184610f0e565b949350505050565b600082825260208201905092915050565b600061111e8261128a565b91506111298361128a565b9250827fffffffffffffffffffffffffffffffffffffffffffffffffffffffffffffffff0382111561115e5761115d611301565b5b828201905092915050565b60006111748261128a565b915061117f8361128a565b92508261118f5761118e611330565b5b828204905092915050565b60006111a58261128a565b91506111b08361128a565b9250817fffffffffffffffffffffffffffffffffffffffffffffffffffffffffffffffff04831182151516156111e9576111e8611301565b5b828202905092915050565b60006111ff8261128a565b915061120a8361128a565b92508282101561121d5761121c611301565b5b828203905092915050565b60006112338261126a565b9050919050565b60006112458261126a565b9050919050565b60008115159050919050565b600061126382611228565b9050919050565b600073ffffffffffffffffffffffffffffffffffffffff82169050919050565b6000819050919050565b600061129f826112a6565b9050919050565b60006112b18261126a565b9050919050565b60006112c38261128a565b91507fffffffffffffffffffffffffffffffffffffffffffffffffffffffffffffffff8214156112f6576112f5611301565b5b600182019050919050565b7f4e487b7100000000000000000000000000000000000000000000000000000000600052601160045260246000fd5b7f4e487b7100000000000000000000000000000000000000000000000000000000600052601260045260246000fd5b7f6974656d20616c726561647920736f6c64000000000000000000000000000000600082015250565b7f5072696365206d7573742062652067726561746572207468616e207a65726f00600082015250565b7f6974656d206973206e6f7420736f6c6400000000000000000000000000000000600082015250565b7f6e6f7420656e6f75676820657468657220746f20636f766572206974656d207060008201527f7269636520616e64206d61726b65742066656500000000000000000000000000602082015250565b7f6974656d20646f65736e27742065786973740000000000000000000000000000600082015250565b7f6f6e6c79207468652073656c6c65722063616e2072656c697374000000000000600082015250565b7f5265656e7472616e637947756172643a207265656e7472616e742063616c6c00600082015250565b6114ad81611258565b81146114b857600080fd5b50565b6114c48161128a565b81146114cf57600080fd5b5056fea2646970667358221220361f3391849a6bb6e97ab274790eef977370361c897e7504d1dbb3a9197a8a8b64736f6c63430008040033",
  "linkReferences": {},
  "deployedLinkReferences": {}
}